{
  "contractName": "EducationCertificate",
  "abi": [
    {
      "inputs": [
        {
          "internalType": "address",
          "name": "initialAdmin",
          "type": "address"
        }
      ],
      "stateMutability": "nonpayable",
      "type": "constructor"
    },
    {
      "anonymous": false,
      "inputs": [
        {
          "indexed": true,
          "internalType": "address",
          "name": "owner",
          "type": "address"
        },
        {
          "indexed": true,
          "internalType": "address",
          "name": "approved",
          "type": "address"
        },
        {
          "indexed": true,
          "internalType": "uint256",
          "name": "tokenId",
          "type": "uint256"
        }
      ],
      "name": "Approval",
      "type": "event"
    },
    {
      "anonymous": false,
      "inputs": [
        {
          "indexed": true,
          "internalType": "address",
          "name": "owner",
          "type": "address"
        },
        {
          "indexed": true,
          "internalType": "address",
          "name": "operator",
          "type": "address"
        },
        {
          "indexed": false,
          "internalType": "bool",
          "name": "approved",
          "type": "bool"
        }
      ],
      "name": "ApprovalForAll",
      "type": "event"
    },
    {
      "anonymous": false,
      "inputs": [
        {
          "indexed": true,
          "internalType": "address",
          "name": "previousOwner",
          "type": "address"
        },
        {
          "indexed": true,
          "internalType": "address",
          "name": "newOwner",
          "type": "address"
        }
      ],
      "name": "OwnershipTransferred",
      "type": "event"
    },
    {
      "anonymous": false,
      "inputs": [
        {
          "indexed": true,
          "internalType": "address",
          "name": "from",
          "type": "address"
        },
        {
          "indexed": true,
          "internalType": "address",
          "name": "to",
          "type": "address"
        },
        {
          "indexed": true,
          "internalType": "uint256",
          "name": "tokenId",
          "type": "uint256"
        }
      ],
      "name": "Transfer",
      "type": "event"
    },
    {
      "inputs": [],
      "name": "admin",
      "outputs": [
        {
          "internalType": "address",
          "name": "",
          "type": "address"
        }
      ],
      "stateMutability": "view",
      "type": "function",
      "constant": true
    },
    {
      "inputs": [
        {
          "internalType": "address",
          "name": "to",
          "type": "address"
        },
        {
          "internalType": "uint256",
          "name": "tokenId",
          "type": "uint256"
        }
      ],
      "name": "approve",
      "outputs": [],
      "stateMutability": "nonpayable",
      "type": "function"
    },
    {
      "inputs": [
        {
          "internalType": "address",
          "name": "owner",
          "type": "address"
        }
      ],
      "name": "balanceOf",
      "outputs": [
        {
          "internalType": "uint256",
          "name": "",
          "type": "uint256"
        }
      ],
      "stateMutability": "view",
      "type": "function",
      "constant": true
    },
    {
      "inputs": [
        {
          "internalType": "uint256",
          "name": "",
          "type": "uint256"
        }
      ],
      "name": "certificates",
      "outputs": [
        {
          "internalType": "string",
          "name": "studentName",
          "type": "string"
        },
        {
          "internalType": "string",
          "name": "courseName",
          "type": "string"
        },
        {
          "internalType": "string",
          "name": "grade",
          "type": "string"
        },
        {
          "internalType": "uint256",
          "name": "dateIssued",
          "type": "uint256"
        }
      ],
      "stateMutability": "view",
      "type": "function",
      "constant": true
    },
    {
      "inputs": [
        {
          "internalType": "uint256",
          "name": "tokenId",
          "type": "uint256"
        }
      ],
      "name": "getApproved",
      "outputs": [
        {
          "internalType": "address",
          "name": "",
          "type": "address"
        }
      ],
      "stateMutability": "view",
      "type": "function",
      "constant": true
    },
    {
      "inputs": [
        {
          "internalType": "address",
          "name": "owner",
          "type": "address"
        },
        {
          "internalType": "address",
          "name": "operator",
          "type": "address"
        }
      ],
      "name": "isApprovedForAll",
      "outputs": [
        {
          "internalType": "bool",
          "name": "",
          "type": "bool"
        }
      ],
      "stateMutability": "view",
      "type": "function",
      "constant": true
    },
    {
      "inputs": [],
      "name": "name",
      "outputs": [
        {
          "internalType": "string",
          "name": "",
          "type": "string"
        }
      ],
      "stateMutability": "view",
      "type": "function",
      "constant": true
    },
    {
      "inputs": [],
      "name": "nextCertificateId",
      "outputs": [
        {
          "internalType": "uint256",
          "name": "",
          "type": "uint256"
        }
      ],
      "stateMutability": "view",
      "type": "function",
      "constant": true
    },
    {
      "inputs": [],
      "name": "owner",
      "outputs": [
        {
          "internalType": "address",
          "name": "",
          "type": "address"
        }
      ],
      "stateMutability": "view",
      "type": "function",
      "constant": true
    },
    {
      "inputs": [
        {
          "internalType": "uint256",
          "name": "tokenId",
          "type": "uint256"
        }
      ],
      "name": "ownerOf",
      "outputs": [
        {
          "internalType": "address",
          "name": "",
          "type": "address"
        }
      ],
      "stateMutability": "view",
      "type": "function",
      "constant": true
    },
    {
      "inputs": [],
      "name": "renounceOwnership",
      "outputs": [],
      "stateMutability": "nonpayable",
      "type": "function"
    },
    {
      "inputs": [
        {
          "internalType": "address",
          "name": "from",
          "type": "address"
        },
        {
          "internalType": "address",
          "name": "to",
          "type": "address"
        },
        {
          "internalType": "uint256",
          "name": "tokenId",
          "type": "uint256"
        }
      ],
      "name": "safeTransferFrom",
      "outputs": [],
      "stateMutability": "nonpayable",
      "type": "function"
    },
    {
      "inputs": [
        {
          "internalType": "address",
          "name": "from",
          "type": "address"
        },
        {
          "internalType": "address",
          "name": "to",
          "type": "address"
        },
        {
          "internalType": "uint256",
          "name": "tokenId",
          "type": "uint256"
        },
        {
          "internalType": "bytes",
          "name": "data",
          "type": "bytes"
        }
      ],
      "name": "safeTransferFrom",
      "outputs": [],
      "stateMutability": "nonpayable",
      "type": "function"
    },
    {
      "inputs": [
        {
          "internalType": "address",
          "name": "operator",
          "type": "address"
        },
        {
          "internalType": "bool",
          "name": "approved",
          "type": "bool"
        }
      ],
      "name": "setApprovalForAll",
      "outputs": [],
      "stateMutability": "nonpayable",
      "type": "function"
    },
    {
      "inputs": [
        {
          "internalType": "bytes4",
          "name": "interfaceId",
          "type": "bytes4"
        }
      ],
      "name": "supportsInterface",
      "outputs": [
        {
          "internalType": "bool",
          "name": "",
          "type": "bool"
        }
      ],
      "stateMutability": "view",
      "type": "function",
      "constant": true
    },
    {
      "inputs": [],
      "name": "symbol",
      "outputs": [
        {
          "internalType": "string",
          "name": "",
          "type": "string"
        }
      ],
      "stateMutability": "view",
      "type": "function",
      "constant": true
    },
    {
      "inputs": [
        {
          "internalType": "uint256",
          "name": "tokenId",
          "type": "uint256"
        }
      ],
      "name": "tokenURI",
      "outputs": [
        {
          "internalType": "string",
          "name": "",
          "type": "string"
        }
      ],
      "stateMutability": "view",
      "type": "function",
      "constant": true
    },
    {
      "inputs": [
        {
          "internalType": "address",
          "name": "from",
          "type": "address"
        },
        {
          "internalType": "address",
          "name": "to",
          "type": "address"
        },
        {
          "internalType": "uint256",
          "name": "tokenId",
          "type": "uint256"
        }
      ],
      "name": "transferFrom",
      "outputs": [],
      "stateMutability": "nonpayable",
      "type": "function"
    },
    {
      "inputs": [
        {
          "internalType": "address",
          "name": "newOwner",
          "type": "address"
        }
      ],
      "name": "transferOwnership",
      "outputs": [],
      "stateMutability": "nonpayable",
      "type": "function"
    },
    {
      "inputs": [
        {
          "internalType": "address",
          "name": "to",
          "type": "address"
        },
        {
          "internalType": "string",
          "name": "studentName",
          "type": "string"
        },
        {
          "internalType": "string",
          "name": "courseName",
          "type": "string"
        },
        {
          "internalType": "string",
          "name": "grade",
          "type": "string"
        },
        {
          "internalType": "uint256",
          "name": "dateIssued",
          "type": "uint256"
        }
      ],
      "name": "mintCertificate",
      "outputs": [],
      "stateMutability": "nonpayable",
      "type": "function"
    },
    {
      "inputs": [
        {
          "internalType": "address",
          "name": "newAdmin",
          "type": "address"
        }
      ],
      "name": "setAdmin",
      "outputs": [],
      "stateMutability": "nonpayable",
      "type": "function"
    },
    {
      "inputs": [
        {
          "internalType": "uint256",
          "name": "certificateId",
          "type": "uint256"
        }
      ],
      "name": "getCertificate",
      "outputs": [
        {
          "components": [
            {
              "internalType": "string",
              "name": "studentName",
              "type": "string"
            },
            {
              "internalType": "string",
              "name": "courseName",
              "type": "string"
            },
            {
              "internalType": "string",
              "name": "grade",
              "type": "string"
            },
            {
              "internalType": "uint256",
              "name": "dateIssued",
              "type": "uint256"
            }
          ],
          "internalType": "struct EducationCertificate.Certificate",
          "name": "",
          "type": "tuple"
        }
      ],
      "stateMutability": "view",
      "type": "function",
      "constant": true
    }
  ],
  "bytecode": "0x60806040523480156200001157600080fd5b50604051620037bf380380620037bf833981810160405281019062000037919062000327565b6040518060400160405280601481526020017f456475636174696f6e43657274696669636174650000000000000000000000008152506040518060400160405280600381526020017f45445500000000000000000000000000000000000000000000000000000000008152508160009080519060200190620000bb9291906200020d565b508060019080519060200190620000d49291906200020d565b505050620000f7620000eb6200013f60201b60201c565b6200014760201b60201c565b80600860006101000a81548173ffffffffffffffffffffffffffffffffffffffff021916908373ffffffffffffffffffffffffffffffffffffffff16021790555050620003bd565b600033905090565b6000600660009054906101000a900473ffffffffffffffffffffffffffffffffffffffff16905081600660006101000a81548173ffffffffffffffffffffffffffffffffffffffff021916908373ffffffffffffffffffffffffffffffffffffffff1602179055508173ffffffffffffffffffffffffffffffffffffffff168173ffffffffffffffffffffffffffffffffffffffff167f8be0079c531659141344cd1fd0a4f28419497f9722a3daafe3b4186f6b6457e060405160405180910390a35050565b8280546200021b9062000388565b90600052602060002090601f0160209004810192826200023f57600085556200028b565b82601f106200025a57805160ff19168380011785556200028b565b828001600101855582156200028b579182015b828111156200028a5782518255916020019190600101906200026d565b5b5090506200029a91906200029e565b5090565b5b80821115620002b95760008160009055506001016200029f565b5090565b600080fd5b600073ffffffffffffffffffffffffffffffffffffffff82169050919050565b6000620002ef82620002c2565b9050919050565b6200030181620002e2565b81146200030d57600080fd5b50565b6000815190506200032181620002f6565b92915050565b60006020828403121562000340576200033f620002bd565b5b6000620003508482850162000310565b91505092915050565b7f4e487b7100000000000000000000000000000000000000000000000000000000600052602260045260246000fd5b60006002820490506001821680620003a157607f821691505b602082108103620003b757620003b662000359565b5b50919050565b6133f280620003cd6000396000f3fe608060405234801561001057600080fd5b50600436106101425760003560e01c8063715018a6116100b8578063b82539671161007c578063b825396714610378578063b88d4fde14610394578063c87b56dd146103b0578063e985e9c5146103e0578063f2fde38b14610410578063f851a4401461042c57610142565b8063715018a6146102f85780638da5cb5b1461030257806395d89b4114610320578063a0bdb0031461033e578063a22cb4651461035c57610142565b806342842e0e1161010a57806342842e0e146101fd57806351640fee146102195780636352211e14610249578063663b3e2214610279578063704b6c02146102ac57806370a08231146102c857610142565b806301ffc9a71461014757806306fdde0314610177578063081812fc14610195578063095ea7b3146101c557806323b872dd146101e1575b600080fd5b610161600480360381019061015c919061220b565b61044a565b60405161016e9190612253565b60405180910390f35b61017f61052c565b60405161018c9190612307565b60405180910390f35b6101af60048036038101906101aa919061235f565b6105be565b6040516101bc91906123cd565b60405180910390f35b6101df60048036038101906101da9190612414565b610604565b005b6101fb60048036038101906101f69190612454565b61071b565b005b61021760048036038101906102129190612454565b61077b565b005b610233600480360381019061022e919061235f565b61079b565b6040516102409190612571565b60405180910390f35b610263600480360381019061025e919061235f565b610988565b60405161027091906123cd565b60405180910390f35b610293600480360381019061028e919061235f565b610a0e565b6040516102a394939291906125a2565b60405180910390f35b6102c660048036038101906102c191906125fc565b610bd6565b005b6102e260048036038101906102dd91906125fc565b610c22565b6040516102ef9190612629565b60405180910390f35b610300610cd9565b005b61030a610ced565b60405161031791906123cd565b60405180910390f35b610328610d17565b6040516103359190612307565b60405180910390f35b610346610da9565b6040516103539190612629565b60405180910390f35b61037660048036038101906103719190612670565b610daf565b005b610392600480360381019061038d91906127e5565b610dc5565b005b6103ae60048036038101906103a99190612955565b610e92565b005b6103ca60048036038101906103c5919061235f565b610ef4565b6040516103d79190612307565b60405180910390f35b6103fa60048036038101906103f591906129d8565b610f5c565b6040516104079190612253565b60405180910390f35b61042a600480360381019061042591906125fc565b610ff0565b005b610434611073565b60405161044191906123cd565b60405180910390f35b60007f80ac58cd000000000000000000000000000000000000000000000000000000007bffffffffffffffffffffffffffffffffffffffffffffffffffffffff1916827bffffffffffffffffffffffffffffffffffffffffffffffffffffffff1916148061051557507f5b5e139f000000000000000000000000000000000000000000000000000000007bffffffffffffffffffffffffffffffffffffffffffffffffffffffff1916827bffffffffffffffffffffffffffffffffffffffffffffffffffffffff1916145b80610525575061052482611099565b5b9050919050565b60606000805461053b90612a47565b80601f016020809104026020016040519081016040528092919081815260200182805461056790612a47565b80156105b45780601f10610589576101008083540402835291602001916105b4565b820191906000526020600020905b81548152906001019060200180831161059757829003601f168201915b5050505050905090565b60006105c982611103565b6004600083815260200190815260200160002060009054906101000a900473ffffffffffffffffffffffffffffffffffffffff169050919050565b600061060f82610988565b90508073ffffffffffffffffffffffffffffffffffffffff168373ffffffffffffffffffffffffffffffffffffffff160361067f576040517f08c379a000000000000000000000000000000000000000000000000000000000815260040161067690612aea565b60405180910390fd5b8073ffffffffffffffffffffffffffffffffffffffff1661069e61114e565b73ffffffffffffffffffffffffffffffffffffffff1614806106cd57506106cc816106c761114e565b610f5c565b5b61070c576040517f08c379a000000000000000000000000000000000000000000000000000000000815260040161070390612b7c565b60405180910390fd5b6107168383611156565b505050565b61072c61072661114e565b8261120f565b61076b576040517f08c379a000000000000000000000000000000000000000000000000000000000815260040161076290612c0e565b60405180910390fd5b6107768383836112a4565b505050565b61079683838360405180602001604052806000815250610e92565b505050565b6107a36120d4565b600960008381526020019081526020016000206040518060800160405290816000820180546107d190612a47565b80601f01602080910402602001604051908101604052809291908181526020018280546107fd90612a47565b801561084a5780601f1061081f5761010080835404028352916020019161084a565b820191906000526020600020905b81548152906001019060200180831161082d57829003601f168201915b5050505050815260200160018201805461086390612a47565b80601f016020809104026020016040519081016040528092919081815260200182805461088f90612a47565b80156108dc5780601f106108b1576101008083540402835291602001916108dc565b820191906000526020600020905b8154815290600101906020018083116108bf57829003601f168201915b505050505081526020016002820180546108f590612a47565b80601f016020809104026020016040519081016040528092919081815260200182805461092190612a47565b801561096e5780601f106109435761010080835404028352916020019161096e565b820191906000526020600020905b81548152906001019060200180831161095157829003601f168201915b505050505081526020016003820154815250509050919050565b6000806109948361159d565b9050600073ffffffffffffffffffffffffffffffffffffffff168173ffffffffffffffffffffffffffffffffffffffff1603610a05576040517f08c379a00000000000000000000000000000000000000000000000000000000081526004016109fc90612c7a565b60405180910390fd5b80915050919050565b6009602052806000526040600020600091509050806000018054610a3190612a47565b80601f0160208091040260200160405190810160405280929190818152602001828054610a5d90612a47565b8015610aaa5780601f10610a7f57610100808354040283529160200191610aaa565b820191906000526020600020905b815481529060010190602001808311610a8d57829003601f168201915b505050505090806001018054610abf90612a47565b80601f0160208091040260200160405190810160405280929190818152602001828054610aeb90612a47565b8015610b385780601f10610b0d57610100808354040283529160200191610b38565b820191906000526020600020905b815481529060010190602001808311610b1b57829003601f168201915b505050505090806002018054610b4d90612a47565b80601f0160208091040260200160405190810160405280929190818152602001828054610b7990612a47565b8015610bc65780601f10610b9b57610100808354040283529160200191610bc6565b820191906000526020600020905b815481529060010190602001808311610ba957829003601f168201915b5050505050908060030154905084565b610bde6115da565b80600860006101000a81548173ffffffffffffffffffffffffffffffffffffffff021916908373ffffffffffffffffffffffffffffffffffffffff16021790555050565b60008073ffffffffffffffffffffffffffffffffffffffff168273ffffffffffffffffffffffffffffffffffffffff1603610c92576040517f08c379a0000000000000000000000000000000000000000000000000000000008152600401610c8990612d0c565b60405180910390fd5b600360008373ffffffffffffffffffffffffffffffffffffffff1673ffffffffffffffffffffffffffffffffffffffff168152602001908152602001600020549050919050565b610ce16115da565b610ceb6000611658565b565b6000600660009054906101000a900473ffffffffffffffffffffffffffffffffffffffff16905090565b606060018054610d2690612a47565b80601f0160208091040260200160405190810160405280929190818152602001828054610d5290612a47565b8015610d9f5780601f10610d7457610100808354040283529160200191610d9f565b820191906000526020600020905b815481529060010190602001808311610d8257829003601f168201915b5050505050905090565b60075481565b610dc1610dba61114e565b838361171e565b5050565b610dcd6115da565b6040518060800160405280858152602001848152602001838152602001828152506009600060075481526020019081526020016000206000820151816000019080519060200190610e1f9291906120fc565b506020820151816001019080519060200190610e3c9291906120fc565b506040820151816002019080519060200190610e599291906120fc565b5060608201518160030155905050610e738560075461188a565b60076000815480929190610e8690612d5b565b91905055505050505050565b610ea3610e9d61114e565b8361120f565b610ee2576040517f08c379a0000000000000000000000000000000000000000000000000000000008152600401610ed990612c0e565b60405180910390fd5b610eee848484846118a8565b50505050565b6060610eff82611103565b6000610f09611904565b90506000815111610f295760405180602001604052806000815250610f54565b80610f3384611924565b604051602001610f44929190612ddf565b6040516020818303038152906040525b915050919050565b6000600560008473ffffffffffffffffffffffffffffffffffffffff1673ffffffffffffffffffffffffffffffffffffffff16815260200190815260200160002060008373ffffffffffffffffffffffffffffffffffffffff1673ffffffffffffffffffffffffffffffffffffffff16815260200190815260200160002060009054906101000a900460ff16905092915050565b610ff86115da565b600073ffffffffffffffffffffffffffffffffffffffff168173ffffffffffffffffffffffffffffffffffffffff1603611067576040517f08c379a000000000000000000000000000000000000000000000000000000000815260040161105e90612e75565b60405180910390fd5b61107081611658565b50565b600860009054906101000a900473ffffffffffffffffffffffffffffffffffffffff1681565b60007f01ffc9a7000000000000000000000000000000000000000000000000000000007bffffffffffffffffffffffffffffffffffffffffffffffffffffffff1916827bffffffffffffffffffffffffffffffffffffffffffffffffffffffff1916149050919050565b61110c816119f2565b61114b576040517f08c379a000000000000000000000000000000000000000000000000000000000815260040161114290612c7a565b60405180910390fd5b50565b600033905090565b816004600083815260200190815260200160002060006101000a81548173ffffffffffffffffffffffffffffffffffffffff021916908373ffffffffffffffffffffffffffffffffffffffff160217905550808273ffffffffffffffffffffffffffffffffffffffff166111c983610988565b73ffffffffffffffffffffffffffffffffffffffff167f8c5be1e5ebec7d5bd14f71427d1e84f3dd0314c0f7b2291e5b200ac8c7c3b92560405160405180910390a45050565b60008061121b83610988565b90508073ffffffffffffffffffffffffffffffffffffffff168473ffffffffffffffffffffffffffffffffffffffff16148061125d575061125c8185610f5c565b5b8061129b57508373ffffffffffffffffffffffffffffffffffffffff16611283846105be565b73ffffffffffffffffffffffffffffffffffffffff16145b91505092915050565b8273ffffffffffffffffffffffffffffffffffffffff166112c482610988565b73ffffffffffffffffffffffffffffffffffffffff161461131a576040517f08c379a000000000000000000000000000000000000000000000000000000000815260040161131190612f07565b60405180910390fd5b600073ffffffffffffffffffffffffffffffffffffffff168273ffffffffffffffffffffffffffffffffffffffff1603611389576040517f08c379a000000000000000000000000000000000000000000000000000000000815260040161138090612f99565b60405180910390fd5b6113968383836001611a33565b8273ffffffffffffffffffffffffffffffffffffffff166113b682610988565b73ffffffffffffffffffffffffffffffffffffffff161461140c576040517f08c379a000000000000000000000000000000000000000000000000000000000815260040161140390612f07565b60405180910390fd5b6004600082815260200190815260200160002060006101000a81549073ffffffffffffffffffffffffffffffffffffffff02191690556001600360008573ffffffffffffffffffffffffffffffffffffffff1673ffffffffffffffffffffffffffffffffffffffff168152602001908152602001600020600082825403925050819055506001600360008473ffffffffffffffffffffffffffffffffffffffff1673ffffffffffffffffffffffffffffffffffffffff16815260200190815260200160002060008282540192505081905550816002600083815260200190815260200160002060006101000a81548173ffffffffffffffffffffffffffffffffffffffff021916908373ffffffffffffffffffffffffffffffffffffffff160217905550808273ffffffffffffffffffffffffffffffffffffffff168473ffffffffffffffffffffffffffffffffffffffff167fddf252ad1be2c89b69c2b068fc378daa952ba7f163c4a11628f55a4df523b3ef60405160405180910390a46115988383836001611b59565b505050565b60006002600083815260200190815260200160002060009054906101000a900473ffffffffffffffffffffffffffffffffffffffff169050919050565b6115e261114e565b73ffffffffffffffffffffffffffffffffffffffff16611600610ced565b73ffffffffffffffffffffffffffffffffffffffff1614611656576040517f08c379a000000000000000000000000000000000000000000000000000000000815260040161164d90613005565b60405180910390fd5b565b6000600660009054906101000a900473ffffffffffffffffffffffffffffffffffffffff16905081600660006101000a81548173ffffffffffffffffffffffffffffffffffffffff021916908373ffffffffffffffffffffffffffffffffffffffff1602179055508173ffffffffffffffffffffffffffffffffffffffff168173ffffffffffffffffffffffffffffffffffffffff167f8be0079c531659141344cd1fd0a4f28419497f9722a3daafe3b4186f6b6457e060405160405180910390a35050565b8173ffffffffffffffffffffffffffffffffffffffff168373ffffffffffffffffffffffffffffffffffffffff160361178c576040517f08c379a000000000000000000000000000000000000000000000000000000000815260040161178390613071565b60405180910390fd5b80600560008573ffffffffffffffffffffffffffffffffffffffff1673ffffffffffffffffffffffffffffffffffffffff16815260200190815260200160002060008473ffffffffffffffffffffffffffffffffffffffff1673ffffffffffffffffffffffffffffffffffffffff16815260200190815260200160002060006101000a81548160ff0219169083151502179055508173ffffffffffffffffffffffffffffffffffffffff168373ffffffffffffffffffffffffffffffffffffffff167f17307eab39ab6107e8899845ad3d59bd9653f200f220920489ca2b5937696c318360405161187d9190612253565b60405180910390a3505050565b6118a4828260405180602001604052806000815250611b5f565b5050565b6118b38484846112a4565b6118bf84848484611bba565b6118fe576040517f08c379a00000000000000000000000000000000000000000000000000000000081526004016118f590613103565b60405180910390fd5b50505050565b606060405180606001604052806025815260200161339860259139905090565b60606000600161193384611d41565b01905060008167ffffffffffffffff811115611952576119516126ba565b5b6040519080825280601f01601f1916602001820160405280156119845781602001600182028036833780820191505090505b509050600082602001820190505b6001156119e7578080600190039150507f3031323334353637383961626364656600000000000000000000000000000000600a86061a8153600a85816119db576119da613123565b5b04945060008503611992575b819350505050919050565b60008073ffffffffffffffffffffffffffffffffffffffff16611a148361159d565b73ffffffffffffffffffffffffffffffffffffffff1614159050919050565b6001811115611b5357600073ffffffffffffffffffffffffffffffffffffffff168473ffffffffffffffffffffffffffffffffffffffff1614611ac75780600360008673ffffffffffffffffffffffffffffffffffffffff1673ffffffffffffffffffffffffffffffffffffffff1681526020019081526020016000206000828254611abf9190613152565b925050819055505b600073ffffffffffffffffffffffffffffffffffffffff168373ffffffffffffffffffffffffffffffffffffffff1614611b525780600360008573ffffffffffffffffffffffffffffffffffffffff1673ffffffffffffffffffffffffffffffffffffffff1681526020019081526020016000206000828254611b4a9190613186565b925050819055505b5b50505050565b50505050565b611b698383611e94565b611b766000848484611bba565b611bb5576040517f08c379a0000000000000000000000000000000000000000000000000000000008152600401611bac90613103565b60405180910390fd5b505050565b6000611bdb8473ffffffffffffffffffffffffffffffffffffffff166120b1565b15611d34578373ffffffffffffffffffffffffffffffffffffffff1663150b7a02611c0461114e565b8786866040518563ffffffff1660e01b8152600401611c269493929190613231565b6020604051808303816000875af1925050508015611c6257506040513d601f19601f82011682018060405250810190611c5f9190613292565b60015b611ce4573d8060008114611c92576040519150601f19603f3d011682016040523d82523d6000602084013e611c97565b606091505b506000815103611cdc576040517f08c379a0000000000000000000000000000000000000000000000000000000008152600401611cd390613103565b60405180910390fd5b805181602001fd5b63150b7a0260e01b7bffffffffffffffffffffffffffffffffffffffffffffffffffffffff1916817bffffffffffffffffffffffffffffffffffffffffffffffffffffffff191614915050611d39565b600190505b949350505050565b600080600090507a184f03e93ff9f4daa797ed6e38ed64bf6a1f0100000000000000008310611d9f577a184f03e93ff9f4daa797ed6e38ed64bf6a1f0100000000000000008381611d9557611d94613123565b5b0492506040810190505b6d04ee2d6d415b85acef81000000008310611ddc576d04ee2d6d415b85acef81000000008381611dd257611dd1613123565b5b0492506020810190505b662386f26fc100008310611e0b57662386f26fc100008381611e0157611e00613123565b5b0492506010810190505b6305f5e1008310611e34576305f5e1008381611e2a57611e29613123565b5b0492506008810190505b6127108310611e59576127108381611e4f57611e4e613123565b5b0492506004810190505b60648310611e7c5760648381611e7257611e71613123565b5b0492506002810190505b600a8310611e8b576001810190505b80915050919050565b600073ffffffffffffffffffffffffffffffffffffffff168273ffffffffffffffffffffffffffffffffffffffff1603611f03576040517f08c379a0000000000000000000000000000000000000000000000000000000008152600401611efa9061330b565b60405180910390fd5b611f0c816119f2565b15611f4c576040517f08c379a0000000000000000000000000000000000000000000000000000000008152600401611f4390613377565b60405180910390fd5b611f5a600083836001611a33565b611f63816119f2565b15611fa3576040517f08c379a0000000000000000000000000000000000000000000000000000000008152600401611f9a90613377565b60405180910390fd5b6001600360008473ffffffffffffffffffffffffffffffffffffffff1673ffffffffffffffffffffffffffffffffffffffff16815260200190815260200160002060008282540192505081905550816002600083815260200190815260200160002060006101000a81548173ffffffffffffffffffffffffffffffffffffffff021916908373ffffffffffffffffffffffffffffffffffffffff160217905550808273ffffffffffffffffffffffffffffffffffffffff16600073ffffffffffffffffffffffffffffffffffffffff167fddf252ad1be2c89b69c2b068fc378daa952ba7f163c4a11628f55a4df523b3ef60405160405180910390a46120ad600083836001611b59565b5050565b6000808273ffffffffffffffffffffffffffffffffffffffff163b119050919050565b6040518060800160405280606081526020016060815260200160608152602001600081525090565b82805461210890612a47565b90600052602060002090601f01602090048101928261212a5760008555612171565b82601f1061214357805160ff1916838001178555612171565b82800160010185558215612171579182015b82811115612170578251825591602001919060010190612155565b5b50905061217e9190612182565b5090565b5b8082111561219b576000816000905550600101612183565b5090565b6000604051905090565b600080fd5b600080fd5b60007fffffffff0000000000000000000000000000000000000000000000000000000082169050919050565b6121e8816121b3565b81146121f357600080fd5b50565b600081359050612205816121df565b92915050565b600060208284031215612221576122206121a9565b5b600061222f848285016121f6565b91505092915050565b60008115159050919050565b61224d81612238565b82525050565b60006020820190506122686000830184612244565b92915050565b600081519050919050565b600082825260208201905092915050565b60005b838110156122a857808201518184015260208101905061228d565b838111156122b7576000848401525b50505050565b6000601f19601f8301169050919050565b60006122d98261226e565b6122e38185612279565b93506122f381856020860161228a565b6122fc816122bd565b840191505092915050565b6000602082019050818103600083015261232181846122ce565b905092915050565b6000819050919050565b61233c81612329565b811461234757600080fd5b50565b60008135905061235981612333565b92915050565b600060208284031215612375576123746121a9565b5b60006123838482850161234a565b91505092915050565b600073ffffffffffffffffffffffffffffffffffffffff82169050919050565b60006123b78261238c565b9050919050565b6123c7816123ac565b82525050565b60006020820190506123e260008301846123be565b92915050565b6123f1816123ac565b81146123fc57600080fd5b50565b60008135905061240e816123e8565b92915050565b6000806040838503121561242b5761242a6121a9565b5b6000612439858286016123ff565b925050602061244a8582860161234a565b9150509250929050565b60008060006060848603121561246d5761246c6121a9565b5b600061247b868287016123ff565b935050602061248c868287016123ff565b925050604061249d8682870161234a565b9150509250925092565b600082825260208201905092915050565b60006124c38261226e565b6124cd81856124a7565b93506124dd81856020860161228a565b6124e6816122bd565b840191505092915050565b6124fa81612329565b82525050565b6000608083016000830151848203600086015261251d82826124b8565b9150506020830151848203602086015261253782826124b8565b9150506040830151848203604086015261255182826124b8565b915050606083015161256660608601826124f1565b508091505092915050565b6000602082019050818103600083015261258b8184612500565b905092915050565b61259c81612329565b82525050565b600060808201905081810360008301526125bc81876122ce565b905081810360208301526125d081866122ce565b905081810360408301526125e481856122ce565b90506125f36060830184612593565b95945050505050565b600060208284031215612612576126116121a9565b5b6000612620848285016123ff565b91505092915050565b600060208201905061263e6000830184612593565b92915050565b61264d81612238565b811461265857600080fd5b50565b60008135905061266a81612644565b92915050565b60008060408385031215612687576126866121a9565b5b6000612695858286016123ff565b92505060206126a68582860161265b565b9150509250929050565b600080fd5b600080fd5b7f4e487b7100000000000000000000000000000000000000000000000000000000600052604160045260246000fd5b6126f2826122bd565b810181811067ffffffffffffffff82111715612711576127106126ba565b5b80604052505050565b600061272461219f565b905061273082826126e9565b919050565b600067ffffffffffffffff8211156127505761274f6126ba565b5b612759826122bd565b9050602081019050919050565b82818337600083830152505050565b600061278861278384612735565b61271a565b9050828152602081018484840111156127a4576127a36126b5565b5b6127af848285612766565b509392505050565b600082601f8301126127cc576127cb6126b0565b5b81356127dc848260208601612775565b91505092915050565b600080600080600060a08688031215612801576128006121a9565b5b600061280f888289016123ff565b955050602086013567ffffffffffffffff8111156128305761282f6121ae565b5b61283c888289016127b7565b945050604086013567ffffffffffffffff81111561285d5761285c6121ae565b5b612869888289016127b7565b935050606086013567ffffffffffffffff81111561288a576128896121ae565b5b612896888289016127b7565b92505060806128a78882890161234a565b9150509295509295909350565b600067ffffffffffffffff8211156128cf576128ce6126ba565b5b6128d8826122bd565b9050602081019050919050565b60006128f86128f3846128b4565b61271a565b905082815260208101848484011115612914576129136126b5565b5b61291f848285612766565b509392505050565b600082601f83011261293c5761293b6126b0565b5b813561294c8482602086016128e5565b91505092915050565b6000806000806080858703121561296f5761296e6121a9565b5b600061297d878288016123ff565b945050602061298e878288016123ff565b935050604061299f8782880161234a565b925050606085013567ffffffffffffffff8111156129c0576129bf6121ae565b5b6129cc87828801612927565b91505092959194509250565b600080604083850312156129ef576129ee6121a9565b5b60006129fd858286016123ff565b9250506020612a0e858286016123ff565b9150509250929050565b7f4e487b7100000000000000000000000000000000000000000000000000000000600052602260045260246000fd5b60006002820490506001821680612a5f57607f821691505b602082108103612a7257612a71612a18565b5b50919050565b7f4552433732313a20617070726f76616c20746f2063757272656e74206f776e6560008201527f7200000000000000000000000000000000000000000000000000000000000000602082015250565b6000612ad4602183612279565b9150612adf82612a78565b604082019050919050565b60006020820190508181036000830152612b0381612ac7565b9050919050565b7f4552433732313a20617070726f76652063616c6c6572206973206e6f7420746f60008201527f6b656e206f776e6572206f7220617070726f76656420666f7220616c6c000000602082015250565b6000612b66603d83612279565b9150612b7182612b0a565b604082019050919050565b60006020820190508181036000830152612b9581612b59565b9050919050565b7f4552433732313a2063616c6c6572206973206e6f7420746f6b656e206f776e6560008201527f72206f7220617070726f76656400000000000000000000000000000000000000602082015250565b6000612bf8602d83612279565b9150612c0382612b9c565b604082019050919050565b60006020820190508181036000830152612c2781612beb565b9050919050565b7f4552433732313a20696e76616c696420746f6b656e2049440000000000000000600082015250565b6000612c64601883612279565b9150612c6f82612c2e565b602082019050919050565b60006020820190508181036000830152612c9381612c57565b9050919050565b7f4552433732313a2061646472657373207a65726f206973206e6f74206120766160008201527f6c6964206f776e65720000000000000000000000000000000000000000000000602082015250565b6000612cf6602983612279565b9150612d0182612c9a565b604082019050919050565b60006020820190508181036000830152612d2581612ce9565b9050919050565b7f4e487b7100000000000000000000000000000000000000000000000000000000600052601160045260246000fd5b6000612d6682612329565b91507fffffffffffffffffffffffffffffffffffffffffffffffffffffffffffffffff8203612d9857612d97612d2c565b5b600182019050919050565b600081905092915050565b6000612db98261226e565b612dc38185612da3565b9350612dd381856020860161228a565b80840191505092915050565b6000612deb8285612dae565b9150612df78284612dae565b91508190509392505050565b7f4f776e61626c653a206e6577206f776e657220697320746865207a65726f206160008201527f6464726573730000000000000000000000000000000000000000000000000000602082015250565b6000612e5f602683612279565b9150612e6a82612e03565b604082019050919050565b60006020820190508181036000830152612e8e81612e52565b9050919050565b7f4552433732313a207472616e736665722066726f6d20696e636f72726563742060008201527f6f776e6572000000000000000000000000000000000000000000000000000000602082015250565b6000612ef1602583612279565b9150612efc82612e95565b604082019050919050565b60006020820190508181036000830152612f2081612ee4565b9050919050565b7f4552433732313a207472616e7366657220746f20746865207a65726f2061646460008201527f7265737300000000000000000000000000000000000000000000000000000000602082015250565b6000612f83602483612279565b9150612f8e82612f27565b604082019050919050565b60006020820190508181036000830152612fb281612f76565b9050919050565b7f4f776e61626c653a2063616c6c6572206973206e6f7420746865206f776e6572600082015250565b6000612fef602083612279565b9150612ffa82612fb9565b602082019050919050565b6000602082019050818103600083015261301e81612fe2565b9050919050565b7f4552433732313a20617070726f766520746f2063616c6c657200000000000000600082015250565b600061305b601983612279565b915061306682613025565b602082019050919050565b6000602082019050818103600083015261308a8161304e565b9050919050565b7f4552433732313a207472616e7366657220746f206e6f6e20455243373231526560008201527f63656976657220696d706c656d656e7465720000000000000000000000000000602082015250565b60006130ed603283612279565b91506130f882613091565b604082019050919050565b6000602082019050818103600083015261311c816130e0565b9050919050565b7f4e487b7100000000000000000000000000000000000000000000000000000000600052601260045260246000fd5b600061315d82612329565b915061316883612329565b92508282101561317b5761317a612d2c565b5b828203905092915050565b600061319182612329565b915061319c83612329565b9250827fffffffffffffffffffffffffffffffffffffffffffffffffffffffffffffffff038211156131d1576131d0612d2c565b5b828201905092915050565b600081519050919050565b600082825260208201905092915050565b6000613203826131dc565b61320d81856131e7565b935061321d81856020860161228a565b613226816122bd565b840191505092915050565b600060808201905061324660008301876123be565b61325360208301866123be565b6132606040830185612593565b818103606083015261327281846131f8565b905095945050505050565b60008151905061328c816121df565b92915050565b6000602082840312156132a8576132a76121a9565b5b60006132b68482850161327d565b91505092915050565b7f4552433732313a206d696e7420746f20746865207a65726f2061646472657373600082015250565b60006132f5602083612279565b9150613300826132bf565b602082019050919050565b60006020820190508181036000830152613324816132e8565b9050919050565b7f4552433732313a20746f6b656e20616c7265616479206d696e74656400000000600082015250565b6000613361601c83612279565b915061336c8261332b565b602082019050919050565b6000602082019050818103600083015261339081613354565b905091905056fe68747470733a2f2f6170692e6578616d706c652e636f6d2f6365727469666963617465732fa26469706673582212205a5e926d4296ffe88d234d09f00facbcc6aa166e3536fb862bd7b0e0c7a4e87364736f6c634300080e0033",
  "immutableReferences": {},
  "source": "// SPDX-License-Identifier: MIT\npragma solidity >=0.7.0 <0.9.0;\n\nimport \"../node_modules/@openzeppelin/contracts/token/ERC721/ERC721.sol\";\nimport \"../node_modules/@openzeppelin/contracts/access/Ownable.sol\";\n\ncontract EducationCertificate is ERC721, Ownable {\n    uint256 public nextCertificateId;\n    address public admin;\n\n\n    struct Certificate {\n        string studentName;\n        string courseName;\n        string grade;\n        uint256 dateIssued;\n    }\n\n    mapping(uint256 => Certificate) public certificates;\n\n    constructor(address initialAdmin) ERC721(\"EducationCertificate\", \"EDU\") Ownable() {\n        admin = initialAdmin;\n    }\n\n    function mintCertificate(\n        address to,\n        string memory studentName,\n        string memory courseName,\n        string memory grade,\n        uint256 dateIssued\n    ) external onlyOwner {\n        certificates[nextCertificateId] = Certificate(studentName, courseName, grade, dateIssued);\n        _safeMint(to, nextCertificateId);\n        nextCertificateId++;\n    }\n\n    function _baseURI() internal view virtual override returns (string memory) {\n        return \"https://api.example.com/certificates/\";\n    }\n\n    function setAdmin(address newAdmin) external onlyOwner {\n        admin = newAdmin;\n    }\n\n    function getCertificate(uint256 certificateId) external view returns (Certificate memory) {\n        return certificates[certificateId];\n    }\n}",
  "sourcePath": "/Users/admin/Desktop/ProjectAll/kmutnbLab/contracts/EducationCertificate.sol",
  "compiler": {
    "name": "solc",
    "version": "0.8.14+commit.80d49f37.Emscripten.clang"
  },
  "schemaVersion": "3.4.16",
  "updatedAt": "2025-02-18T05:26:02.587Z",
  "networkType": "ethereum",
  "devdoc": {
    "kind": "dev",
    "methods": {
      "approve(address,uint256)": {
        "details": "See {IERC721-approve}."
      },
      "balanceOf(address)": {
        "details": "See {IERC721-balanceOf}."
      },
      "getApproved(uint256)": {
        "details": "See {IERC721-getApproved}."
      },
      "isApprovedForAll(address,address)": {
        "details": "See {IERC721-isApprovedForAll}."
      },
      "name()": {
        "details": "See {IERC721Metadata-name}."
      },
      "owner()": {
        "details": "Returns the address of the current owner."
      },
      "ownerOf(uint256)": {
        "details": "See {IERC721-ownerOf}."
      },
      "renounceOwnership()": {
        "details": "Leaves the contract without owner. It will not be possible to call `onlyOwner` functions anymore. Can only be called by the current owner. NOTE: Renouncing ownership will leave the contract without an owner, thereby removing any functionality that is only available to the owner."
      },
      "safeTransferFrom(address,address,uint256)": {
        "details": "See {IERC721-safeTransferFrom}."
      },
      "safeTransferFrom(address,address,uint256,bytes)": {
        "details": "See {IERC721-safeTransferFrom}."
      },
      "setApprovalForAll(address,bool)": {
        "details": "See {IERC721-setApprovalForAll}."
      },
      "supportsInterface(bytes4)": {
        "details": "See {IERC165-supportsInterface}."
      },
      "symbol()": {
        "details": "See {IERC721Metadata-symbol}."
      },
      "tokenURI(uint256)": {
        "details": "See {IERC721Metadata-tokenURI}."
      },
      "transferFrom(address,address,uint256)": {
        "details": "See {IERC721-transferFrom}."
      },
      "transferOwnership(address)": {
        "details": "Transfers ownership of the contract to a new account (`newOwner`). Can only be called by the current owner."
      }
    },
    "version": 1
  },
  "userdoc": {
    "kind": "user",
    "methods": {},
    "version": 1
  }
}