{
  "contractName": "MyERC1155",
  "abi": [
    {
      "inputs": [
        {
          "internalType": "string",
          "name": "uri",
          "type": "string"
        },
        {
          "internalType": "address",
          "name": "initialOwner",
          "type": "address"
        }
      ],
      "stateMutability": "nonpayable",
      "type": "constructor"
    },
    {
      "anonymous": false,
      "inputs": [
        {
          "indexed": true,
          "internalType": "address",
          "name": "account",
          "type": "address"
        },
        {
          "indexed": true,
          "internalType": "address",
          "name": "operator",
          "type": "address"
        },
        {
          "indexed": false,
          "internalType": "bool",
          "name": "approved",
          "type": "bool"
        }
      ],
      "name": "ApprovalForAll",
      "type": "event"
    },
    {
      "anonymous": false,
      "inputs": [
        {
          "indexed": true,
          "internalType": "address",
          "name": "previousOwner",
          "type": "address"
        },
        {
          "indexed": true,
          "internalType": "address",
          "name": "newOwner",
          "type": "address"
        }
      ],
      "name": "OwnershipTransferred",
      "type": "event"
    },
    {
      "anonymous": false,
      "inputs": [
        {
          "indexed": true,
          "internalType": "address",
          "name": "operator",
          "type": "address"
        },
        {
          "indexed": true,
          "internalType": "address",
          "name": "from",
          "type": "address"
        },
        {
          "indexed": true,
          "internalType": "address",
          "name": "to",
          "type": "address"
        },
        {
          "indexed": false,
          "internalType": "uint256[]",
          "name": "ids",
          "type": "uint256[]"
        },
        {
          "indexed": false,
          "internalType": "uint256[]",
          "name": "values",
          "type": "uint256[]"
        }
      ],
      "name": "TransferBatch",
      "type": "event"
    },
    {
      "anonymous": false,
      "inputs": [
        {
          "indexed": true,
          "internalType": "address",
          "name": "operator",
          "type": "address"
        },
        {
          "indexed": true,
          "internalType": "address",
          "name": "from",
          "type": "address"
        },
        {
          "indexed": true,
          "internalType": "address",
          "name": "to",
          "type": "address"
        },
        {
          "indexed": false,
          "internalType": "uint256",
          "name": "id",
          "type": "uint256"
        },
        {
          "indexed": false,
          "internalType": "uint256",
          "name": "value",
          "type": "uint256"
        }
      ],
      "name": "TransferSingle",
      "type": "event"
    },
    {
      "anonymous": false,
      "inputs": [
        {
          "indexed": false,
          "internalType": "string",
          "name": "value",
          "type": "string"
        },
        {
          "indexed": true,
          "internalType": "uint256",
          "name": "id",
          "type": "uint256"
        }
      ],
      "name": "URI",
      "type": "event"
    },
    {
      "inputs": [
        {
          "internalType": "address",
          "name": "account",
          "type": "address"
        },
        {
          "internalType": "uint256",
          "name": "id",
          "type": "uint256"
        }
      ],
      "name": "balanceOf",
      "outputs": [
        {
          "internalType": "uint256",
          "name": "",
          "type": "uint256"
        }
      ],
      "stateMutability": "view",
      "type": "function",
      "constant": true
    },
    {
      "inputs": [
        {
          "internalType": "address[]",
          "name": "accounts",
          "type": "address[]"
        },
        {
          "internalType": "uint256[]",
          "name": "ids",
          "type": "uint256[]"
        }
      ],
      "name": "balanceOfBatch",
      "outputs": [
        {
          "internalType": "uint256[]",
          "name": "",
          "type": "uint256[]"
        }
      ],
      "stateMutability": "view",
      "type": "function",
      "constant": true
    },
    {
      "inputs": [
        {
          "internalType": "address",
          "name": "account",
          "type": "address"
        },
        {
          "internalType": "address",
          "name": "operator",
          "type": "address"
        }
      ],
      "name": "isApprovedForAll",
      "outputs": [
        {
          "internalType": "bool",
          "name": "",
          "type": "bool"
        }
      ],
      "stateMutability": "view",
      "type": "function",
      "constant": true
    },
    {
      "inputs": [],
      "name": "owner",
      "outputs": [
        {
          "internalType": "address",
          "name": "",
          "type": "address"
        }
      ],
      "stateMutability": "view",
      "type": "function",
      "constant": true
    },
    {
      "inputs": [],
      "name": "renounceOwnership",
      "outputs": [],
      "stateMutability": "nonpayable",
      "type": "function"
    },
    {
      "inputs": [
        {
          "internalType": "address",
          "name": "from",
          "type": "address"
        },
        {
          "internalType": "address",
          "name": "to",
          "type": "address"
        },
        {
          "internalType": "uint256[]",
          "name": "ids",
          "type": "uint256[]"
        },
        {
          "internalType": "uint256[]",
          "name": "amounts",
          "type": "uint256[]"
        },
        {
          "internalType": "bytes",
          "name": "data",
          "type": "bytes"
        }
      ],
      "name": "safeBatchTransferFrom",
      "outputs": [],
      "stateMutability": "nonpayable",
      "type": "function"
    },
    {
      "inputs": [
        {
          "internalType": "address",
          "name": "from",
          "type": "address"
        },
        {
          "internalType": "address",
          "name": "to",
          "type": "address"
        },
        {
          "internalType": "uint256",
          "name": "id",
          "type": "uint256"
        },
        {
          "internalType": "uint256",
          "name": "amount",
          "type": "uint256"
        },
        {
          "internalType": "bytes",
          "name": "data",
          "type": "bytes"
        }
      ],
      "name": "safeTransferFrom",
      "outputs": [],
      "stateMutability": "nonpayable",
      "type": "function"
    },
    {
      "inputs": [
        {
          "internalType": "address",
          "name": "operator",
          "type": "address"
        },
        {
          "internalType": "bool",
          "name": "approved",
          "type": "bool"
        }
      ],
      "name": "setApprovalForAll",
      "outputs": [],
      "stateMutability": "nonpayable",
      "type": "function"
    },
    {
      "inputs": [
        {
          "internalType": "bytes4",
          "name": "interfaceId",
          "type": "bytes4"
        }
      ],
      "name": "supportsInterface",
      "outputs": [
        {
          "internalType": "bool",
          "name": "",
          "type": "bool"
        }
      ],
      "stateMutability": "view",
      "type": "function",
      "constant": true
    },
    {
      "inputs": [
        {
          "internalType": "address",
          "name": "newOwner",
          "type": "address"
        }
      ],
      "name": "transferOwnership",
      "outputs": [],
      "stateMutability": "nonpayable",
      "type": "function"
    },
    {
      "inputs": [
        {
          "internalType": "uint256",
          "name": "",
          "type": "uint256"
        }
      ],
      "name": "uri",
      "outputs": [
        {
          "internalType": "string",
          "name": "",
          "type": "string"
        }
      ],
      "stateMutability": "view",
      "type": "function",
      "constant": true
    },
    {
      "inputs": [
        {
          "internalType": "string",
          "name": "newuri",
          "type": "string"
        }
      ],
      "name": "setURI",
      "outputs": [],
      "stateMutability": "nonpayable",
      "type": "function"
    }
  ],
  "bytecode": "0x60806040523480156200001157600080fd5b5060405162002f9c38038062002f9c83398181016040528101906200003791906200040e565b8162000049816200007260201b60201c565b506200006a6200005e6200008e60201b60201c565b6200009660201b60201c565b5050620004d8565b80600290805190602001906200008a9291906200015c565b5050565b600033905090565b6000600360009054906101000a900473ffffffffffffffffffffffffffffffffffffffff16905081600360006101000a81548173ffffffffffffffffffffffffffffffffffffffff021916908373ffffffffffffffffffffffffffffffffffffffff1602179055508173ffffffffffffffffffffffffffffffffffffffff168173ffffffffffffffffffffffffffffffffffffffff167f8be0079c531659141344cd1fd0a4f28419497f9722a3daafe3b4186f6b6457e060405160405180910390a35050565b8280546200016a90620004a3565b90600052602060002090601f0160209004810192826200018e5760008555620001da565b82601f10620001a957805160ff1916838001178555620001da565b82800160010185558215620001da579182015b82811115620001d9578251825591602001919060010190620001bc565b5b509050620001e99190620001ed565b5090565b5b8082111562000208576000816000905550600101620001ee565b5090565b6000604051905090565b600080fd5b600080fd5b600080fd5b600080fd5b6000601f19601f8301169050919050565b7f4e487b7100000000000000000000000000000000000000000000000000000000600052604160045260246000fd5b62000275826200022a565b810181811067ffffffffffffffff821117156200029757620002966200023b565b5b80604052505050565b6000620002ac6200020c565b9050620002ba82826200026a565b919050565b600067ffffffffffffffff821115620002dd57620002dc6200023b565b5b620002e8826200022a565b9050602081019050919050565b60005b8381101562000315578082015181840152602081019050620002f8565b8381111562000325576000848401525b50505050565b6000620003426200033c84620002bf565b620002a0565b90508281526020810184848401111562000361576200036062000225565b5b6200036e848285620002f5565b509392505050565b600082601f8301126200038e576200038d62000220565b5b8151620003a08482602086016200032b565b91505092915050565b600073ffffffffffffffffffffffffffffffffffffffff82169050919050565b6000620003d682620003a9565b9050919050565b620003e881620003c9565b8114620003f457600080fd5b50565b6000815190506200040881620003dd565b92915050565b6000806040838503121562000428576200042762000216565b5b600083015167ffffffffffffffff8111156200044957620004486200021b565b5b620004578582860162000376565b92505060206200046a85828601620003f7565b9150509250929050565b7f4e487b7100000000000000000000000000000000000000000000000000000000600052602260045260246000fd5b60006002820490506001821680620004bc57607f821691505b602082108103620004d257620004d162000474565b5b50919050565b612ab480620004e86000396000f3fe608060405234801561001057600080fd5b50600436106100b35760003560e01c8063715018a611610071578063715018a6146101b05780638da5cb5b146101ba578063a22cb465146101d8578063e985e9c5146101f4578063f242432a14610224578063f2fde38b14610240576100b3565b8062fdd58e146100b857806301ffc9a7146100e857806302fe5305146101185780630e89341c146101345780632eb2c2d6146101645780634e1273f414610180575b600080fd5b6100d260048036038101906100cd9190611712565b61025c565b6040516100df9190611761565b60405180910390f35b61010260048036038101906100fd91906117d4565b610324565b60405161010f919061181c565b60405180910390f35b610132600480360381019061012d919061197d565b610406565b005b61014e600480360381019061014991906119c6565b61041a565b60405161015b9190611a7b565b60405180910390f35b61017e60048036038101906101799190611c06565b6104ae565b005b61019a60048036038101906101959190611d98565b61054f565b6040516101a79190611ece565b60405180910390f35b6101b8610668565b005b6101c261067c565b6040516101cf9190611eff565b60405180910390f35b6101f260048036038101906101ed9190611f46565b6106a6565b005b61020e60048036038101906102099190611f86565b6106bc565b60405161021b919061181c565b60405180910390f35b61023e60048036038101906102399190611fc6565b610750565b005b61025a6004803603810190610255919061205d565b6107f1565b005b60008073ffffffffffffffffffffffffffffffffffffffff168373ffffffffffffffffffffffffffffffffffffffff16036102cc576040517f08c379a00000000000000000000000000000000000000000000000000000000081526004016102c3906120fc565b60405180910390fd5b60008083815260200190815260200160002060008473ffffffffffffffffffffffffffffffffffffffff1673ffffffffffffffffffffffffffffffffffffffff16815260200190815260200160002054905092915050565b60007fd9b67a26000000000000000000000000000000000000000000000000000000007bffffffffffffffffffffffffffffffffffffffffffffffffffffffff1916827bffffffffffffffffffffffffffffffffffffffffffffffffffffffff191614806103ef57507f0e89341c000000000000000000000000000000000000000000000000000000007bffffffffffffffffffffffffffffffffffffffffffffffffffffffff1916827bffffffffffffffffffffffffffffffffffffffffffffffffffffffff1916145b806103ff57506103fe82610874565b5b9050919050565b61040e6108de565b6104178161095c565b50565b6060600280546104299061214b565b80601f01602080910402602001604051908101604052809291908181526020018280546104559061214b565b80156104a25780601f10610477576101008083540402835291602001916104a2565b820191906000526020600020905b81548152906001019060200180831161048557829003601f168201915b50505050509050919050565b6104b6610976565b73ffffffffffffffffffffffffffffffffffffffff168573ffffffffffffffffffffffffffffffffffffffff1614806104fc57506104fb856104f6610976565b6106bc565b5b61053b576040517f08c379a0000000000000000000000000000000000000000000000000000000008152600401610532906121ee565b60405180910390fd5b610548858585858561097e565b5050505050565b60608151835114610595576040517f08c379a000000000000000000000000000000000000000000000000000000000815260040161058c90612280565b60405180910390fd5b6000835167ffffffffffffffff8111156105b2576105b1611852565b5b6040519080825280602002602001820160405280156105e05781602001602082028036833780820191505090505b50905060005b845181101561065d5761062d858281518110610605576106046122a0565b5b60200260200101518583815181106106205761061f6122a0565b5b602002602001015161025c565b8282815181106106405761063f6122a0565b5b60200260200101818152505080610656906122fe565b90506105e6565b508091505092915050565b6106706108de565b61067a6000610c9f565b565b6000600360009054906101000a900473ffffffffffffffffffffffffffffffffffffffff16905090565b6106b86106b1610976565b8383610d65565b5050565b6000600160008473ffffffffffffffffffffffffffffffffffffffff1673ffffffffffffffffffffffffffffffffffffffff16815260200190815260200160002060008373ffffffffffffffffffffffffffffffffffffffff1673ffffffffffffffffffffffffffffffffffffffff16815260200190815260200160002060009054906101000a900460ff16905092915050565b610758610976565b73ffffffffffffffffffffffffffffffffffffffff168573ffffffffffffffffffffffffffffffffffffffff16148061079e575061079d85610798610976565b6106bc565b5b6107dd576040517f08c379a00000000000000000000000000000000000000000000000000000000081526004016107d4906121ee565b60405180910390fd5b6107ea8585858585610ed1565b5050505050565b6107f96108de565b600073ffffffffffffffffffffffffffffffffffffffff168173ffffffffffffffffffffffffffffffffffffffff1603610868576040517f08c379a000000000000000000000000000000000000000000000000000000000815260040161085f906123b8565b60405180910390fd5b61087181610c9f565b50565b60007f01ffc9a7000000000000000000000000000000000000000000000000000000007bffffffffffffffffffffffffffffffffffffffffffffffffffffffff1916827bffffffffffffffffffffffffffffffffffffffffffffffffffffffff1916149050919050565b6108e6610976565b73ffffffffffffffffffffffffffffffffffffffff1661090461067c565b73ffffffffffffffffffffffffffffffffffffffff161461095a576040517f08c379a000000000000000000000000000000000000000000000000000000000815260040161095190612424565b60405180910390fd5b565b80600290805190602001906109729291906115c7565b5050565b600033905090565b81518351146109c2576040517f08c379a00000000000000000000000000000000000000000000000000000000081526004016109b9906124b6565b60405180910390fd5b600073ffffffffffffffffffffffffffffffffffffffff168473ffffffffffffffffffffffffffffffffffffffff1603610a31576040517f08c379a0000000000000000000000000000000000000000000000000000000008152600401610a2890612548565b60405180910390fd5b6000610a3b610976565b9050610a4b81878787878761116c565b60005b8451811015610bfc576000858281518110610a6c57610a6b6122a0565b5b602002602001015190506000858381518110610a8b57610a8a6122a0565b5b60200260200101519050600080600084815260200190815260200160002060008b73ffffffffffffffffffffffffffffffffffffffff1673ffffffffffffffffffffffffffffffffffffffff16815260200190815260200160002054905081811015610b2c576040517f08c379a0000000000000000000000000000000000000000000000000000000008152600401610b23906125da565b60405180910390fd5b81810360008085815260200190815260200160002060008c73ffffffffffffffffffffffffffffffffffffffff1673ffffffffffffffffffffffffffffffffffffffff168152602001908152602001600020819055508160008085815260200190815260200160002060008b73ffffffffffffffffffffffffffffffffffffffff1673ffffffffffffffffffffffffffffffffffffffff1681526020019081526020016000206000828254610be191906125fa565b9250508190555050505080610bf5906122fe565b9050610a4e565b508473ffffffffffffffffffffffffffffffffffffffff168673ffffffffffffffffffffffffffffffffffffffff168273ffffffffffffffffffffffffffffffffffffffff167f4a39dc06d4c0dbc64b70af90fd698a233a518aa5d07e595d983b8c0526c8f7fb8787604051610c73929190612650565b60405180910390a4610c89818787878787611174565b610c9781878787878761117c565b505050505050565b6000600360009054906101000a900473ffffffffffffffffffffffffffffffffffffffff16905081600360006101000a81548173ffffffffffffffffffffffffffffffffffffffff021916908373ffffffffffffffffffffffffffffffffffffffff1602179055508173ffffffffffffffffffffffffffffffffffffffff168173ffffffffffffffffffffffffffffffffffffffff167f8be0079c531659141344cd1fd0a4f28419497f9722a3daafe3b4186f6b6457e060405160405180910390a35050565b8173ffffffffffffffffffffffffffffffffffffffff168373ffffffffffffffffffffffffffffffffffffffff1603610dd3576040517f08c379a0000000000000000000000000000000000000000000000000000000008152600401610dca906126f9565b60405180910390fd5b80600160008573ffffffffffffffffffffffffffffffffffffffff1673ffffffffffffffffffffffffffffffffffffffff16815260200190815260200160002060008473ffffffffffffffffffffffffffffffffffffffff1673ffffffffffffffffffffffffffffffffffffffff16815260200190815260200160002060006101000a81548160ff0219169083151502179055508173ffffffffffffffffffffffffffffffffffffffff168373ffffffffffffffffffffffffffffffffffffffff167f17307eab39ab6107e8899845ad3d59bd9653f200f220920489ca2b5937696c3183604051610ec4919061181c565b60405180910390a3505050565b600073ffffffffffffffffffffffffffffffffffffffff168473ffffffffffffffffffffffffffffffffffffffff1603610f40576040517f08c379a0000000000000000000000000000000000000000000000000000000008152600401610f3790612548565b60405180910390fd5b6000610f4a610976565b90506000610f5785611353565b90506000610f6485611353565b9050610f7483898985858961116c565b600080600088815260200190815260200160002060008a73ffffffffffffffffffffffffffffffffffffffff1673ffffffffffffffffffffffffffffffffffffffff1681526020019081526020016000205490508581101561100b576040517f08c379a0000000000000000000000000000000000000000000000000000000008152600401611002906125da565b60405180910390fd5b85810360008089815260200190815260200160002060008b73ffffffffffffffffffffffffffffffffffffffff1673ffffffffffffffffffffffffffffffffffffffff168152602001908152602001600020819055508560008089815260200190815260200160002060008a73ffffffffffffffffffffffffffffffffffffffff1673ffffffffffffffffffffffffffffffffffffffff16815260200190815260200160002060008282546110c091906125fa565b925050819055508773ffffffffffffffffffffffffffffffffffffffff168973ffffffffffffffffffffffffffffffffffffffff168573ffffffffffffffffffffffffffffffffffffffff167fc3d58168c5ae7397731d063d5bbf3d657854427343f4c083240f7aacaa2d0f628a8a60405161113d929190612719565b60405180910390a4611153848a8a86868a611174565b611161848a8a8a8a8a6113cd565b505050505050505050565b505050505050565b505050505050565b61119b8473ffffffffffffffffffffffffffffffffffffffff166115a4565b1561134b578373ffffffffffffffffffffffffffffffffffffffff1663bc197c8187878686866040518663ffffffff1660e01b81526004016111e1959493929190612797565b6020604051808303816000875af192505050801561121d57506040513d601f19601f8201168201806040525081019061121a9190612814565b60015b6112c25761122961284e565b806308c379a003611285575061123d612870565b806112485750611287565b806040517f08c379a000000000000000000000000000000000000000000000000000000000815260040161127c9190611a7b565b60405180910390fd5b505b6040517f08c379a00000000000000000000000000000000000000000000000000000000081526004016112b990612972565b60405180910390fd5b63bc197c8160e01b7bffffffffffffffffffffffffffffffffffffffffffffffffffffffff1916817bffffffffffffffffffffffffffffffffffffffffffffffffffffffff191614611349576040517f08c379a000000000000000000000000000000000000000000000000000000000815260040161134090612a04565b60405180910390fd5b505b505050505050565b60606000600167ffffffffffffffff81111561137257611371611852565b5b6040519080825280602002602001820160405280156113a05781602001602082028036833780820191505090505b50905082816000815181106113b8576113b76122a0565b5b60200260200101818152505080915050919050565b6113ec8473ffffffffffffffffffffffffffffffffffffffff166115a4565b1561159c578373ffffffffffffffffffffffffffffffffffffffff1663f23a6e6187878686866040518663ffffffff1660e01b8152600401611432959493929190612a24565b6020604051808303816000875af192505050801561146e57506040513d601f19601f8201168201806040525081019061146b9190612814565b60015b6115135761147a61284e565b806308c379a0036114d6575061148e612870565b8061149957506114d8565b806040517f08c379a00000000000000000000000000000000000000000000000000000000081526004016114cd9190611a7b565b60405180910390fd5b505b6040517f08c379a000000000000000000000000000000000000000000000000000000000815260040161150a90612972565b60405180910390fd5b63f23a6e6160e01b7bffffffffffffffffffffffffffffffffffffffffffffffffffffffff1916817bffffffffffffffffffffffffffffffffffffffffffffffffffffffff19161461159a576040517f08c379a000000000000000000000000000000000000000000000000000000000815260040161159190612a04565b60405180910390fd5b505b505050505050565b6000808273ffffffffffffffffffffffffffffffffffffffff163b119050919050565b8280546115d39061214b565b90600052602060002090601f0160209004810192826115f5576000855561163c565b82601f1061160e57805160ff191683800117855561163c565b8280016001018555821561163c579182015b8281111561163b578251825591602001919060010190611620565b5b509050611649919061164d565b5090565b5b8082111561166657600081600090555060010161164e565b5090565b6000604051905090565b600080fd5b600080fd5b600073ffffffffffffffffffffffffffffffffffffffff82169050919050565b60006116a98261167e565b9050919050565b6116b98161169e565b81146116c457600080fd5b50565b6000813590506116d6816116b0565b92915050565b6000819050919050565b6116ef816116dc565b81146116fa57600080fd5b50565b60008135905061170c816116e6565b92915050565b6000806040838503121561172957611728611674565b5b6000611737858286016116c7565b9250506020611748858286016116fd565b9150509250929050565b61175b816116dc565b82525050565b60006020820190506117766000830184611752565b92915050565b60007fffffffff0000000000000000000000000000000000000000000000000000000082169050919050565b6117b18161177c565b81146117bc57600080fd5b50565b6000813590506117ce816117a8565b92915050565b6000602082840312156117ea576117e9611674565b5b60006117f8848285016117bf565b91505092915050565b60008115159050919050565b61181681611801565b82525050565b6000602082019050611831600083018461180d565b92915050565b600080fd5b600080fd5b6000601f19601f8301169050919050565b7f4e487b7100000000000000000000000000000000000000000000000000000000600052604160045260246000fd5b61188a82611841565b810181811067ffffffffffffffff821117156118a9576118a8611852565b5b80604052505050565b60006118bc61166a565b90506118c88282611881565b919050565b600067ffffffffffffffff8211156118e8576118e7611852565b5b6118f182611841565b9050602081019050919050565b82818337600083830152505050565b600061192061191b846118cd565b6118b2565b90508281526020810184848401111561193c5761193b61183c565b5b6119478482856118fe565b509392505050565b600082601f83011261196457611963611837565b5b813561197484826020860161190d565b91505092915050565b60006020828403121561199357611992611674565b5b600082013567ffffffffffffffff8111156119b1576119b0611679565b5b6119bd8482850161194f565b91505092915050565b6000602082840312156119dc576119db611674565b5b60006119ea848285016116fd565b91505092915050565b600081519050919050565b600082825260208201905092915050565b60005b83811015611a2d578082015181840152602081019050611a12565b83811115611a3c576000848401525b50505050565b6000611a4d826119f3565b611a5781856119fe565b9350611a67818560208601611a0f565b611a7081611841565b840191505092915050565b60006020820190508181036000830152611a958184611a42565b905092915050565b600067ffffffffffffffff821115611ab857611ab7611852565b5b602082029050602081019050919050565b600080fd5b6000611ae1611adc84611a9d565b6118b2565b90508083825260208201905060208402830185811115611b0457611b03611ac9565b5b835b81811015611b2d5780611b1988826116fd565b845260208401935050602081019050611b06565b5050509392505050565b600082601f830112611b4c57611b4b611837565b5b8135611b5c848260208601611ace565b91505092915050565b600067ffffffffffffffff821115611b8057611b7f611852565b5b611b8982611841565b9050602081019050919050565b6000611ba9611ba484611b65565b6118b2565b905082815260208101848484011115611bc557611bc461183c565b5b611bd08482856118fe565b509392505050565b600082601f830112611bed57611bec611837565b5b8135611bfd848260208601611b96565b91505092915050565b600080600080600060a08688031215611c2257611c21611674565b5b6000611c30888289016116c7565b9550506020611c41888289016116c7565b945050604086013567ffffffffffffffff811115611c6257611c61611679565b5b611c6e88828901611b37565b935050606086013567ffffffffffffffff811115611c8f57611c8e611679565b5b611c9b88828901611b37565b925050608086013567ffffffffffffffff811115611cbc57611cbb611679565b5b611cc888828901611bd8565b9150509295509295909350565b600067ffffffffffffffff821115611cf057611cef611852565b5b602082029050602081019050919050565b6000611d14611d0f84611cd5565b6118b2565b90508083825260208201905060208402830185811115611d3757611d36611ac9565b5b835b81811015611d605780611d4c88826116c7565b845260208401935050602081019050611d39565b5050509392505050565b600082601f830112611d7f57611d7e611837565b5b8135611d8f848260208601611d01565b91505092915050565b60008060408385031215611daf57611dae611674565b5b600083013567ffffffffffffffff811115611dcd57611dcc611679565b5b611dd985828601611d6a565b925050602083013567ffffffffffffffff811115611dfa57611df9611679565b5b611e0685828601611b37565b9150509250929050565b600081519050919050565b600082825260208201905092915050565b6000819050602082019050919050565b611e45816116dc565b82525050565b6000611e578383611e3c565b60208301905092915050565b6000602082019050919050565b6000611e7b82611e10565b611e858185611e1b565b9350611e9083611e2c565b8060005b83811015611ec1578151611ea88882611e4b565b9750611eb383611e63565b925050600181019050611e94565b5085935050505092915050565b60006020820190508181036000830152611ee88184611e70565b905092915050565b611ef98161169e565b82525050565b6000602082019050611f146000830184611ef0565b92915050565b611f2381611801565b8114611f2e57600080fd5b50565b600081359050611f4081611f1a565b92915050565b60008060408385031215611f5d57611f5c611674565b5b6000611f6b858286016116c7565b9250506020611f7c85828601611f31565b9150509250929050565b60008060408385031215611f9d57611f9c611674565b5b6000611fab858286016116c7565b9250506020611fbc858286016116c7565b9150509250929050565b600080600080600060a08688031215611fe257611fe1611674565b5b6000611ff0888289016116c7565b9550506020612001888289016116c7565b9450506040612012888289016116fd565b9350506060612023888289016116fd565b925050608086013567ffffffffffffffff81111561204457612043611679565b5b61205088828901611bd8565b9150509295509295909350565b60006020828403121561207357612072611674565b5b6000612081848285016116c7565b91505092915050565b7f455243313135353a2061646472657373207a65726f206973206e6f742061207660008201527f616c6964206f776e657200000000000000000000000000000000000000000000602082015250565b60006120e6602a836119fe565b91506120f18261208a565b604082019050919050565b60006020820190508181036000830152612115816120d9565b9050919050565b7f4e487b7100000000000000000000000000000000000000000000000000000000600052602260045260246000fd5b6000600282049050600182168061216357607f821691505b6020821081036121765761217561211c565b5b50919050565b7f455243313135353a2063616c6c6572206973206e6f7420746f6b656e206f776e60008201527f6572206f7220617070726f766564000000000000000000000000000000000000602082015250565b60006121d8602e836119fe565b91506121e38261217c565b604082019050919050565b60006020820190508181036000830152612207816121cb565b9050919050565b7f455243313135353a206163636f756e747320616e6420696473206c656e67746860008201527f206d69736d617463680000000000000000000000000000000000000000000000602082015250565b600061226a6029836119fe565b91506122758261220e565b604082019050919050565b600060208201905081810360008301526122998161225d565b9050919050565b7f4e487b7100000000000000000000000000000000000000000000000000000000600052603260045260246000fd5b7f4e487b7100000000000000000000000000000000000000000000000000000000600052601160045260246000fd5b6000612309826116dc565b91507fffffffffffffffffffffffffffffffffffffffffffffffffffffffffffffffff820361233b5761233a6122cf565b5b600182019050919050565b7f4f776e61626c653a206e6577206f776e657220697320746865207a65726f206160008201527f6464726573730000000000000000000000000000000000000000000000000000602082015250565b60006123a26026836119fe565b91506123ad82612346565b604082019050919050565b600060208201905081810360008301526123d181612395565b9050919050565b7f4f776e61626c653a2063616c6c6572206973206e6f7420746865206f776e6572600082015250565b600061240e6020836119fe565b9150612419826123d8565b602082019050919050565b6000602082019050818103600083015261243d81612401565b9050919050565b7f455243313135353a2069647320616e6420616d6f756e7473206c656e6774682060008201527f6d69736d61746368000000000000000000000000000000000000000000000000602082015250565b60006124a06028836119fe565b91506124ab82612444565b604082019050919050565b600060208201905081810360008301526124cf81612493565b9050919050565b7f455243313135353a207472616e7366657220746f20746865207a65726f20616460008201527f6472657373000000000000000000000000000000000000000000000000000000602082015250565b60006125326025836119fe565b915061253d826124d6565b604082019050919050565b6000602082019050818103600083015261256181612525565b9050919050565b7f455243313135353a20696e73756666696369656e742062616c616e636520666f60008201527f72207472616e7366657200000000000000000000000000000000000000000000602082015250565b60006125c4602a836119fe565b91506125cf82612568565b604082019050919050565b600060208201905081810360008301526125f3816125b7565b9050919050565b6000612605826116dc565b9150612610836116dc565b9250827fffffffffffffffffffffffffffffffffffffffffffffffffffffffffffffffff03821115612645576126446122cf565b5b828201905092915050565b6000604082019050818103600083015261266a8185611e70565b9050818103602083015261267e8184611e70565b90509392505050565b7f455243313135353a2073657474696e6720617070726f76616c2073746174757360008201527f20666f722073656c660000000000000000000000000000000000000000000000602082015250565b60006126e36029836119fe565b91506126ee82612687565b604082019050919050565b60006020820190508181036000830152612712816126d6565b9050919050565b600060408201905061272e6000830185611752565b61273b6020830184611752565b9392505050565b600081519050919050565b600082825260208201905092915050565b600061276982612742565b612773818561274d565b9350612783818560208601611a0f565b61278c81611841565b840191505092915050565b600060a0820190506127ac6000830188611ef0565b6127b96020830187611ef0565b81810360408301526127cb8186611e70565b905081810360608301526127df8185611e70565b905081810360808301526127f3818461275e565b90509695505050505050565b60008151905061280e816117a8565b92915050565b60006020828403121561282a57612829611674565b5b6000612838848285016127ff565b91505092915050565b60008160e01c9050919050565b600060033d111561286d5760046000803e61286a600051612841565b90505b90565b600060443d106128fd5761288261166a565b60043d036004823e80513d602482011167ffffffffffffffff821117156128aa5750506128fd565b808201805167ffffffffffffffff8111156128c857505050506128fd565b80602083010160043d0385018111156128e55750505050506128fd565b6128f482602001850186611881565b82955050505050505b90565b7f455243313135353a207472616e7366657220746f206e6f6e2d4552433131353560008201527f526563656976657220696d706c656d656e746572000000000000000000000000602082015250565b600061295c6034836119fe565b915061296782612900565b604082019050919050565b6000602082019050818103600083015261298b8161294f565b9050919050565b7f455243313135353a204552433131353552656365697665722072656a6563746560008201527f6420746f6b656e73000000000000000000000000000000000000000000000000602082015250565b60006129ee6028836119fe565b91506129f982612992565b604082019050919050565b60006020820190508181036000830152612a1d816129e1565b9050919050565b600060a082019050612a396000830188611ef0565b612a466020830187611ef0565b612a536040830186611752565b612a606060830185611752565b8181036080830152612a72818461275e565b9050969550505050505056fea2646970667358221220e9a192765601a0737f9b6ab6d2b44675b7d0ac1cb58cd5eb89ab1145c788f61464736f6c634300080e0033",
  "immutableReferences": {},
  "source": "// SPDX-License-Identifier: MIT\npragma solidity >=0.7.0 <0.9.0;\n\n\nimport \"../node_modules/@openzeppelin/contracts/token/ERC1155/ERC1155.sol\";\nimport \"../node_modules/@openzeppelin/contracts/access/Ownable.sol\";\n\ncontract MyERC1155 is ERC1155, Ownable {\n    constructor(string memory uri,address initialOwner) ERC1155(uri) {}\n\n    function setURI(string memory newuri) public onlyOwner {\n        _setURI(newuri);\n    }\n}\n",
  "sourcePath": "/Users/admin/Desktop/MacPro/ProgramAll/kmutnbLab/contracts/MyERC1155.sol",
  "compiler": {
    "name": "solc",
    "version": "0.8.14+commit.80d49f37.Emscripten.clang"
  },
  "schemaVersion": "3.4.16",
  "updatedAt": "2024-02-20T03:37:43.367Z",
  "networkType": "ethereum",
  "devdoc": {
    "kind": "dev",
    "methods": {
      "balanceOf(address,uint256)": {
        "details": "See {IERC1155-balanceOf}. Requirements: - `account` cannot be the zero address."
      },
      "balanceOfBatch(address[],uint256[])": {
        "details": "See {IERC1155-balanceOfBatch}. Requirements: - `accounts` and `ids` must have the same length."
      },
      "isApprovedForAll(address,address)": {
        "details": "See {IERC1155-isApprovedForAll}."
      },
      "owner()": {
        "details": "Returns the address of the current owner."
      },
      "renounceOwnership()": {
        "details": "Leaves the contract without owner. It will not be possible to call `onlyOwner` functions anymore. Can only be called by the current owner. NOTE: Renouncing ownership will leave the contract without an owner, thereby removing any functionality that is only available to the owner."
      },
      "safeBatchTransferFrom(address,address,uint256[],uint256[],bytes)": {
        "details": "See {IERC1155-safeBatchTransferFrom}."
      },
      "safeTransferFrom(address,address,uint256,uint256,bytes)": {
        "details": "See {IERC1155-safeTransferFrom}."
      },
      "setApprovalForAll(address,bool)": {
        "details": "See {IERC1155-setApprovalForAll}."
      },
      "supportsInterface(bytes4)": {
        "details": "See {IERC165-supportsInterface}."
      },
      "transferOwnership(address)": {
        "details": "Transfers ownership of the contract to a new account (`newOwner`). Can only be called by the current owner."
      },
      "uri(uint256)": {
        "details": "See {IERC1155MetadataURI-uri}. This implementation returns the same URI for *all* token types. It relies on the token type ID substitution mechanism https://eips.ethereum.org/EIPS/eip-1155#metadata[defined in the EIP]. Clients calling this function must replace the `\\{id\\}` substring with the actual token type ID."
      }
    },
    "version": 1
  },
  "userdoc": {
    "kind": "user",
    "methods": {},
    "version": 1
  }
}